{
  "contractName": "FestivalMarketplace",
  "abi": [
    {
      "inputs": [
        {
          "internalType": "contract FestToken",
          "name": "token",
          "type": "address"
        },
        {
          "internalType": "contract FestivalNFT",
          "name": "festival",
          "type": "address"
        }
      ],
      "stateMutability": "nonpayable",
      "type": "constructor"
    },
    {
      "anonymous": false,
      "inputs": [
        {
          "indexed": true,
          "internalType": "address",
          "name": "buyer",
          "type": "address"
        },
        {
          "indexed": false,
          "internalType": "address",
          "name": "seller",
          "type": "address"
        },
        {
          "indexed": false,
          "internalType": "uint256",
          "name": "ticketId",
          "type": "uint256"
        }
      ],
      "name": "Purchase",
      "type": "event"
    },
    {
      "inputs": [],
      "name": "purchaseTicket",
      "outputs": [],
      "stateMutability": "nonpayable",
      "type": "function"
    },
    {
      "inputs": [
        {
          "internalType": "uint256",
          "name": "ticketId",
          "type": "uint256"
        }
      ],
      "name": "secondaryPurchase",
      "outputs": [],
      "stateMutability": "nonpayable",
      "type": "function"
    }
  ],
  "bytecode": "0x608060405234801561001057600080fd5b506040516106093803806106098339818101604052604081101561003357600080fd5b508051602091820151600080546001600160a01b038085166001600160a01b0319928316179092556001805483851692169190911790819055604080517f0b7055780000000000000000000000000000000000000000000000000000000081529051949593949190921692630b7055789260048082019391829003018186803b1580156100bf57600080fd5b505afa1580156100d3573d6000803e3d6000fd5b505050506040513d60208110156100e957600080fd5b5051600280546001600160a01b0319166001600160a01b03909216919091179055506104ed90508061011c6000396000f3fe608060405234801561001057600080fd5b50600436106100365760003560e01c806321846c761461003b5780632eeac4c314610045575b600080fd5b610043610062565b005b6100436004803603602081101561005b57600080fd5b50356101d5565b6000546002546001546040805163043ddbd760e51b8152905133946001600160a01b03908116946323b872dd948794918316939216916387bb7ae091600480820192602092909190829003018186803b1580156100be57600080fd5b505afa1580156100d2573d6000803e3d6000fd5b505050506040513d60208110156100e857600080fd5b5051604080516001600160e01b031960e087901b1681526001600160a01b0394851660048201529290931660248301526044820152905160648083019260209291908290030181600087803b15801561014057600080fd5b505af1158015610154573d6000803e3d6000fd5b505050506040513d602081101561016a57600080fd5b505060015460408051636afadefb60e01b81526001600160a01b03848116600483015291519190921691636afadefb91602480830192600092919082900301818387803b1580156101ba57600080fd5b505af11580156101ce573d6000803e3d6000fd5b5050505050565b600154604080516331a9108f60e11b81526004810184905290516000926001600160a01b031691636352211e916024808301926020929190829003018186803b15801561022157600080fd5b505afa158015610235573d6000803e3d6000fd5b505050506040513d602081101561024b57600080fd5b50516001546040805163569e35db60e01b815260048101869052905192935033926000926001600160a01b03169163569e35db916024808301926020929190829003018186803b15801561029e57600080fd5b505afa1580156102b2573d6000803e3d6000fd5b505050506040513d60208110156102c857600080fd5b505160008054604080516323b872dd60e01b81526001600160a01b03878116600483015288811660248301526064600a87028190048088036044850152935196975092959316936323b872dd93828401936020939192918390030190829087803b15801561033557600080fd5b505af1158015610349573d6000803e3d6000fd5b505050506040513d602081101561035f57600080fd5b505060008054600254604080516323b872dd60e01b81526001600160a01b038881166004830152928316602482015260448101869052905191909216926323b872dd92606480820193602093909283900390910190829087803b1580156103c557600080fd5b505af11580156103d9573d6000803e3d6000fd5b505050506040513d60208110156103ef57600080fd5b505060015460408051630c83b45960e41b81526001600160a01b038681166004830152602482018990529151919092169163c83b459091604480830192600092919082900301818387803b15801561044657600080fd5b505af115801561045a573d6000803e3d6000fd5b50505050826001600160a01b03167f22e3ae3a20c49dce14046235895c7a3ffc0a6a5f3577c370177ad45fa619485d858760405180836001600160a01b031681526020018281526020019250505060405180910390a2505050505056fea2646970667358221220d8fb878574fe70281e4b4e309e227076aceb0e480c40e4c3103b1fde8b84042b64736f6c634300060c0033",
  "immutableReferences": {},
  "source": "pragma solidity ^0.6.0;\n\nimport \"./FestivalNFT.sol\";\nimport \"./FestToken.sol\";\n\ncontract FestivalMarketplace {\n    FestToken private _token;\n    FestivalNFT private _festival;\n\n    address private _organiser;\n\n    constructor(FestToken token, FestivalNFT festival) public {\n        _token = token;\n        _festival = festival;\n        _organiser = _festival.getOrganiser();\n    }\n\n    event Purchase(address indexed buyer, address seller, uint256 ticketId);\n\n    // Purchase tickets from the organiser directly\n    function purchaseTicket() public {\n        address buyer = msg.sender;\n\n        _token.transferFrom(buyer, _organiser, _festival.getTicketPrice());\n\n        _festival.transferTicket(buyer);\n    }\n\n    // Purchase ticket from the secondary market hosted by organiser\n    function secondaryPurchase(uint256 ticketId) public {\n        address seller = _festival.ownerOf(ticketId);\n        address buyer = msg.sender;\n        uint256 sellingPrice = _festival.getSellingPrice(ticketId);\n        uint256 commision = (sellingPrice * 10) / 100;\n\n        _token.transferFrom(buyer, seller, sellingPrice - commision);\n        _token.transferFrom(buyer, _organiser, commision);\n\n        _festival.secondaryTransferTicket(buyer, ticketId);\n\n        emit Purchase(buyer, seller, ticketId);\n    }\n}\n",
  "sourcePath": "D:\\WEB DEV\\Parth\\contracts\\FestivalMarketplace.sol",
  "compiler": {
    "name": "solc",
    "version": "0.6.12+commit.27d51765.Emscripten.clang"
  },
  "schemaVersion": "3.4.16",
  "updatedAt": "2025-03-04T18:00:07.041Z",
  "devdoc": {
    "kind": "dev",
    "methods": {},
    "version": 1
  },
  "userdoc": {
    "kind": "user",
    "methods": {},
    "version": 1
  }
}